S01F0000554152545F506F6C6C696E674D6F64655F4170705B325D2E73726563A6
S113000071C0000086C0000084C0000082C00000EF
S113001080C000007EC000007CC000007AC00000E8
S113002078C0000076C0000074C0000072C00000F8
S113003070C000006EC000006CC000006AC0000008
S113004068C0000066C0000064C0000062C0000018
S113005060C000005EC000005CC000005AC0000028
S113006058C0000056C0000054C0000052C0000038
S113007050C000004EC000004CC000004AC0000048
S113008048C0000046C0000044C0000042C0000058
S113009040C000003EC000003CC000003AC0000068
S11300A038C0000036C0000034C0000032C0000078
S11300B030C000002EC000002CC000002AC0000088
S11300C028C0000026C0000024C0000022C0000098
S11300D020C000001EC000001CC000001AC00000A8
S11300E018C0000011241FBECFEFD1E2DEBFCDBF88
S11300F000E00CBF12E0A0E0B2E0E2EFF1E000E0CB
S11301000BBF02C007900D92A630B107D9F702D0F9
S11301106EC076CF60E875E280E090E006D080E0C3
S113012092E030D03BD027D0FDCFDC01CB01880F4B
S1130130991FAA1FBB1F880F991FAA1FBB1F9C01D1
S1130140AD01220F331F441F551F220F331F441FBD
S1130150551F60E074E284EF90E027D0215031090C
S11301603093C5002093C40088E18093C10086E0E9
S11301708093C20008959091C00095FFFCCF8093B6
S1130180C6000895CF93DF93EC0102C02196F3DFFC
S113019088818111FBCFDF91CF9108958091C000B8
S11301A08823E4F78091C6000895A1E21A2EAA1BC1
S11301B0BB1BFD010DC0AA1FBB1FEE1FFF1FA21713
S11301C0B307E407F50720F0A21BB30BE40BF50B10
S11301D0661F771F881F991F1A9469F76095709599
S11301E0809590959B01AC01BD01CF010895F894D1
S10501F0FFCF3B
S10901F248656C6C6F000F
S9030000FC
